:020000040800F2
:1000000048050020DD010008E5010008E7010008BF
:10001000E9010008EB010008ED0100080000000004
:10002000000000000000000000000000EF010008D8
:10003000F101000800000000F3010008F5010008CC
:10004000F7010008F7010008F7010008F7010008B0
:10005000F7010008F7010008F7010008F7010008A0
:10006000F7010008F7010008F7010008F701000890
:10007000F7010008F7010008F7010008F701000880
:10008000F7010008F7010008F7010008F701000870
:10009000F7010008F7010008F7010008F701000860
:1000A000F7010008F7010008F7010008F701000850
:1000B000F7010008F7010008F7010008F701000840
:1000C000F7010008F7010008F7010008F701000830
:1000D000F7010008F70100089D080008F701000873
:1000E000F7010008F7010008F7010008F701000810
:1000F000F7010008F7010008F7010008F701000800
:10010000F7010008F7010008F7010008F7010008EF
:10011000F7010008F7010008F7010008F7010008DF
:10012000F7010008F7010008F7010008F7010008CF
:10013000F70100080000000000000000F7010008BF
:10014000F7010008F7010008F7010008F7010008AF
:10015000F7010008F7010008F7010008F70100089F
:10016000F7010008F7010008F7010008F70100088F
:10017000F7010008F7010008F7010008000000007F
:1001800000000000F701000800000000000000006F
:10019000F70100080000000000000000F70100085F
:1001A000000000000000000000000000F70100084F
:1001B000F7010008F7010008F7010008F70100083F
:1001C000F7010008DFF810D000F05EF800480047A3
:1001D000150D0008AFF30080480500200648804751
:1001E00006480047FEE7FEE7FEE7FEE7FEE7FEE71C
:1001F000FEE7FEE7FEE7FEE799080008C5010008F4
:10020000D2B201E000F8012B491EFBD27047002258
:10021000F6E710B513460A4604461946FFF7F0FF05
:10022000204610BD2DE9F05F0546002092469B4612
:1002300088460646814640241BE0284641464746FC
:10024000224600F042F853465A46C01A914110D354
:1002500011461846224600F029F82D1A67EB0108CE
:100260004F4622460120002100F020F817EB00093C
:100270004E41201EA4F10104DFDC484631462A46E7
:100280004346BDE8F09F0000064C074D06E0E068DD
:1002900040F0010394E8070098471034AC42F6D3CD
:1002A000FFF794FF500D0008700D0008202A04DBB2
:1002B000203A00FA02F1002070479140C2F1200379
:1002C00020FA03F3194390407047202A04DB203AB8
:1002D00021FA02F00021704721FA02F3D040C2F166
:1002E0002002914008431946704700007CB5002465
:1002F0000094019400F0E0F9002000F091FA214D03
:10030000012028604FF4A04602E00098401C0090B5
:10031000212000F059FA28B100200099B14203D2FF
:10032000012102E00120F8E700210842EDD102207E
:1003300000900346019064220821002000F08CFA0E
:10034000022000F09FFA4FF4805000F07BFA4FF447
:10035000A05000F06DFA002000F058FA0A4903207E
:10036000087001202866392000F02EFA0028FAD003
:1003700006494FF000600860BDE87C40012107207D
:1003800000F082B900004742003C024008ED00E066
:100390000CB52020009000208DF8060001208DF87B
:1003A00007008DF804006946014800F0D9F80CBD3B
:1003B0000000024070B501218CB0084600F064F9DD
:1003C0000121480400F06CF90420002404908DF809
:1003D000164001258DF8175002208DF814000320D7
:1003E000354E8DF8150004A9304600F0B9F8082004
:1003F000049004A9304600F0B3F8072202213046E9
:1004000000F0FFF807220321304600F0FAF84FF41D
:10041000E1300690ADF820400C20284EADF81C408D
:10042000ADF82200ADF81E40ADF8244006A93046D4
:1004300000F08AFA26208DF828008DF829408DF8E2
:100440002A408DF82B500AA800F0ECF8012240F267
:100450002551304600F05FFA4FF680403080012190
:10046000304600F047FA16A000F0C4FA684600F0E3
:100470004DF91CA000F0BEFA20A0009900F0BAFAD5
:1004800021A0019900F0B6FA22A0029900F0B2FA78
:1004900023A0039900F0AEFA24480068C0F380510D
:1004A00023A000F0A7FA00F0A9F9014626A000F069
:1004B000A1FA0CB070BD00000000024000440040F2
:1004C000434F4D20504F525420494E4954205B55C4
:1004D0005341525431403131353230306270735DA6
:1004E0002E0A0D00414C4C20434C4F434B205345AA
:1004F0005420544F203D0A0D00000000535953432F
:100500004C4B3D257520000048434C4B3D25750A5A
:100510000D00000050434C4B313D25750900000093
:1005200050434C4B323D25750A0D00000438024003
:10053000504C4C20434C4F434B20534F5552434556
:100540003D25750A0D0000004D41494E20434C4F9A
:10055000434B20534F5543453D25780A0D0000007D
:10056000F0B50023012403270D6804FA03F21540B7
:10057000954242D1D0F800C05E0007FA06F52CEA99
:10058000050CC0F800C091F804C0D0F800E00CFAE7
:1005900006FC4CEA0E0CC0F800C091F804C0BCF197
:1005A000010F02D0BCF1020F1FD1D0F808C02CEA15
:1005B000050CC0F808C091F805C0D0F808E00CFAA6
:1005C00006FC4CEA0E0CC0F808C0D0F804C02CEAB7
:1005D000020CC0F804C0426891F806C00CFA03FC93
:1005E0001FFA8CFC42EA0C024260C268AA43C26055
:1005F000CA79C568B2402A43C2605B1C102BB3D3D2
:10060000F0BD4B07DB0E9A40C90810B500EB810026
:10061000016A0F249C40A1430162016A11430162F7
:1006200010BD000030B50F22C47801780123FCB161
:10063000144C246801F1E02104F4E064C4F5E064A2
:10064000C4F30724C4F10405E2404478AC40857843
:10065000154025432A0181F80024007800F01F018D
:100660008B404009800000F1E020C0F8003130BD2F
:1006700001F01F0083404809800000F1E020C0F82D
:10068000803130BD0CED00E0044A0029116801D032
:10069000014300E0814311607047000030380240A0
:1006A000044A0029116801D0014300E08143116030
:1006B00070470000403802401048016841F00101D5
:1006C00001600E4A00210832116002680C4B1A408A
:1006D0000260031D0B4A1A60084B0B4A84331A60F0
:1006E000084A103A1B1D1A60026822F48022026038
:1006F00002480C300160181D01607047003802404C
:10070000FFFFF6EA103000240030002070B52B4ABD
:1007100011682B4B11F00C0507D05C10042D06D08E
:10072000111F082D05D00C2D17D003602DE004609B
:100730002BE00D68C5F380560D6805F03F0516B136
:10074000B4FBF5F301E0B3FBF5F30C680968C4F3FF
:1007500088146343C1F3014112E00D68C5F380566C
:100760000D6805F03F0516B1B4FBF5F301E0B3FBEE
:10077000F5F30C680968C4F388146343C1F302718C
:10078000491C4900B3FBF1F1016011680F2303EA32
:1007900011110C4B5C5C0168E14041601468072555
:1007A00005EA94241C5D21FA04F48460126805EAC9
:1007B00052329A5CD140C16070BD000008380240DE
:1007C0000024F40002000020024600205109012903
:1007D0000BD002290CD00849096802F01F0201233E
:1007E00093400B4200D00120704703497439F3E76E
:1007F0000149091FF0E70000743802400248006810
:1008000000F00C007047000008380240034A1168ED
:1008100021F0F001014311607047000008380240E8
:10082000024900220A700870704700000238024036
:10083000034A116821F4E051014311607047000040
:100840000838024003490A6822F4604242EAC000C4
:10085000086070470838024030B541EA82115A08F2
:10086000064BDDE9034503EB02421143014341EA34
:100870000460034940EA0570086030BD0000FFFFD6
:1008800004380240034A116821F00301014311605A
:1008900070470000083802407047000070B5124BE6
:1008A00040F22551184600F02FF8012816D14FF6D6
:1008B000DA20188098880E4C0C4AC0B22188002596
:1008C0005054491C89B2218055540A2807D0B1F5EB
:1008D000967F03D30548FFF79AFC258070BD034837
:1008E00000F020FA2188F5E70044004018000020BD
:1008F000000000200029818902D041F4005101E06C
:1009000021F40051818170470246002012880A427A
:1009100000D00120704710B5C1F3421301F01F044D
:100920000121A140012B07D0022B07D01430002A4F
:10093000026805D00A4304E00C30F8E71030F6E70F
:100940008A43026010BD00003FB50446008A0D4690
:1009500020F44051E88808432082A08941F20C61CC
:100960008843A9882A8911436A8902431143A181D6
:10097000A08A20F44071A8890843A0826846FFF746
:10098000C5FE1A48844202D01948844201D1039816
:1009900000E00298A189090400EBC00101EB0010FE
:1009A000296801D5490000E08900B0FBF1F264201C
:1009B000B2FBF0F109010B096FF018056B4302EB74
:1009C0008302A3891D044FF0320306D503EBC20254
:1009D000B2FBF0F000F0070005E003EB0212B2FBFF
:1009E000F0F000F00F00084320813FBD00100140EF
:1009F000001401400FB4054B10B503A9044A029836
:100A000000F018F810BC5DF814FB0000F50C0008AD
:100A10001400002002E008C8121F08C1002AFAD101
:100A200070477047002001E001C1121F002AFBD16E
:100A3000704700002DE9FF4F8DB09B460F460446DE
:100A4000002606E025280BD05A460F999047641CD3
:100A5000761C20780028F5D111B03046BDE8F08F23
:100A60000025A8460122984900E0054314F8013FFB
:100A7000203B02FA03F00842F7D120782E2817D144
:100A800014F8010F45F004052A280ED06FF02F024C
:100A90002078A0F1300109290AD808EB880102EB7F
:100AA000410100EB0108641CF2E757F8048B641C59
:100AB00020786C280DD004DC4C2812D06A2811D183
:100AC00004E074280DD07A280CD10AE045F4001512
:100AD00007E0617845F48015814202D1641C05F578
:100AE0008015641C2078692844D008DC0028B3D025
:100AF000582867D063280FD0642808D13AE07028BE
:100B000065D0732812D075285AD078285AD05A4602
:100B10000F999047761CD5E017F8040B8DF800006C
:100B200000208DF80100E946012003E057F8049BFE
:100B30004FF0FF3069074FF0000501D40AE06D1C4B
:100B400045450DDA8542FADB19F805100029F6D182
:100B500006E06D1C8542FCDB19F805100029F8D170
:100B60002E4404E019F8010B5A460F9990476D1E68
:100B7000F8D2A7E00A200021CDE90801C5F3025010
:100B800002280CD001CFC117021E71F100020CDA4D
:100B90000023D0EB030063EB01012D2208E0FF1DD1
:100BA00027F00707F7E80201EEE72A0504D52B2214
:100BB0008DF8282001223CE0EA073AD02022F7E70E
:100BC0000A2000E010200021CDE9080107E01020F4
:100BD000002145F00405CDE908014FF00808C5F3F0
:100BE0000250022810D001CF00214FF0000A2A073E
:100BF00020D52278702A0DD0DDE908C38CF0100CC6
:100C00005CEA030C0CD015E0FF1D27F00707F7E89E
:100C10000201EAE740228DF828204FF0010A0CE09B
:100C200050EA010306D030238DF828308DF82920B2
:100C3000022292462278582A04D024A20DF12009DB
:100C40000B9209E026A2F9E7DDE90823FFF7EAFAAB
:100C50000B9B9B5C09F8013D50EA0102F4D1ADEB1E
:100C6000090020300890680701D44FF00108089966
:100C7000884503DD0898A8EB000000E000208046CE
:100C8000002506E00AA85A46405D0F9990476D1C62
:100C9000761C5545F6DB04E030205A460F99904704
:100CA000761CB8F10001A8F10108F5DC05E019F89F
:100CB000010B5A460F999047761C0899481E0890D8
:100CC0000029F4DC641CC4E6092801003031323309
:100CD0003435363738396162636465660000000078
:100CE0003031323334353637383941424344454662
:100CF0000000000010B5064B0446C0B298804021A9
:100D00001846FFF701FE0028F9D0204610BD00006C
:100D100000440040FFF7EAFAFFF73AFBFFF74AFB0F
:100D2000FEE7000070B50D4606460023074C09E0BB
:100D3000F05CA08040212046FFF7E6FD0028F9D0B6
:100D40005B1C9BB2AB42F3D370BD0000004400407B
:100D5000700D00080000002018000000140A0008B0
:100D6000880D00081800002030050000240A000843
:100D70000000000000000102030401020304060752
:080D800008090000000000005A
:04000005080001C529
:00000001FF
